:100000000C9417010C9438010C9438010C943801AD
:100010000C9438010C9438010C9438010C9438017C
:100020000C9438010C9438010C9438010C948F0313
:100030000C9438010C9438010C9438010C9438015C
:100040000C9438010C9438010C9438010C9438014C
:100050000C9438010C9438010C9438010C94CF02A4
:100060000C9438010C9438010C9438010C9438012C
:100070000C9419030C9438010C9438010C94380139
:100080000C9438010C9438010C9438010C9438010C
:100090000C9438010C9438010C9438010C943801FC
:1000A0000C9438010C9438010C9438010C943801EC
:1000B0000C9438010C9438010C9438010C943801DC
:1000C0000C9438010C9438010C9438010C943801CC
:1000D0000C9438010C9438010C9438010C943801BC
:1000E0000C9438010C948B010C9458010C949901D8
:1000F0000C9477010C949D010C9473010C9466018F
:100100000C948F010C945E010C946A010C947D0197
:100110000C9485010C9462010C9493010C94980149
:100120000C946D010C948101000020002300260036
:1001300029002C002F0032000001000003010601FD
:10014000090100002200250028002B002E003100AC
:10015000340002010000050108010B010505050539
:10016000070508080808020202020A0A080804042F
:10017000040401010101010101010303030303035D
:100180000303040707070C0C0C0C0C0C0C0C0202EC
:10019000020206060606060606060B0B0B0B0B0BE9
:1001A0000B0B010210202008081020401020408076
:1001B000020102010804020101020408102040802B
:1001C00080402010080402018004020180402010B9
:1001D0000804020108040201010204081020408002
:1001E000010204081020408000000A0B02090C0DD7
:1001F0000E080703040100000000000000000000DA
:1002000000000000000000000000000000000000EE
:1002100000000000121110000000000000000000AB
:100220000000000000000000000000000000112499
:100230001FBECFEFD1E2DEBFCDBF00E00CBF12E0AA
:10024000A0E0B2E0EEE0F0E100E00BBF02C00790FA
:100250000D92A430B107D9F722E0A4E0B2E001C0CA
:100260001D92AD32B207E1F70E9419040C94050803
:100270000C9400008150823108F05AC0E82FF0E061
:100280008827EA5BFE4F8F4F0C94E90766016A01ED
:1002900058015E01620198016D01730177017D01D2
:1002A000810185018B018F019801930199019D01C5
:1002B000809180008F7780938000089580918000E6
:1002C0008F7DF9CF80918000877FF5CF84B58F77C0
:1002D00084BD089584B58F7DFBCF8091B0008F776A
:1002E0008093B00008958091B0008F7DF9CF809108
:1002F00090008F77809390000895809190008F7D7B
:10030000F9CF80919000877FF5CF8091A0008F7703
:100310008093A00008958091A0008F7DF9CF8091F7
:10032000A000877FF5CF809120018F7780932001F7
:100330000895809120018F7DF9CF80912001877FE2
:10034000F5CF1F93CF93DF93E5EFF1E09491EFEAC0
:10035000F1E0D491E9E6F1E0C491CC23B9F0182F93
:10036000992319F0892F0E943A01EC2FF0E0EE0F4B
:10037000FF1FEE5BFE4FA591B4918FB7F894EC91FF
:10038000111108C0D095DE23DC938FBFDF91CF9190
:100390001F910895DE2BF8CFCF93DF93282F30E005
:1003A000F901E851FE4F8491F901EE55FE4FD491C9
:1003B000F901E45AFE4FC491CC23A1F081110E94AF
:1003C0003A01EC2FF0E0EE0FFF1FE85DFE4FA59124
:1003D000B491EC91ED2381E090E009F480E0DF91AD
:1003E000CF91089580E090E0FACF3FB7F8948091E4
:1003F000150290911602A0911702B091180226B52D
:10040000A89B05C02F3F19F00196A11DB11D3FBF4C
:10041000BA2FA92F982F8827BC01CD01620F711D1B
:10042000811D911D42E0660F771F881F991F4A9515
:10043000D1F708958AE30E94CC01892BA1F081E0D5
:1004400090E0909301028093000289E30E94CC0126
:1004500021E0009709F420E020932702892B31F056
:1004600081E00C94A1018FEF9FEFEBCF80E0F9CFFB
:10047000209127022223C9F09C01211584E038072E
:1004800014F02FEF33E02332310514F423E230E08F
:10049000309389002093880030938B0020938A004A
:1004A00030938D0020938C0008958FEF93E090930C
:1004B00089008093880090938B0080938A009093AA
:1004C0008D0080938C00089580911D0290911E02F2
:1004D00082309105E1F15CF40097D9F0019749F180
:1004E00080912702811102C080E180BF089584308D
:1004F000910509F449C0CCF1059791F782E088B9DC
:100500009BE09093800010927A0090E490937B009F
:100510001BC082E088B983E88093800010927A0043
:1005200080E480937B0010927C0080B7836080BF62
:10053000D7CF84E088B983E88093800010927A0056
:1005400080E480937B0081E080937C001AC084E08B
:1005500088B983E28093800010927A0080E48093CF
:100560007B0082E080937C00E0CF81E08BB983E266
:100570008093800010927A0080E480937B00109238
:100580007C0080B78E7FD3CF81E088B99BE09093C9
:10059000800010927A0090E490937B00E3CF1F924A
:1005A0000F920FB60F9211242F933F938F939F9327
:1005B000AF93BF938091110290911202A091130208
:1005C000B09114023091100223E0230F2D3758F51B
:1005D0000196A11DB11D20931002809311029093EA
:1005E0001202A0931302B09314028091150290910D
:1005F0001602A0911702B09118020196A11DB11D1B
:100600008093150290931602A0931702B0931802DC
:10061000BF91AF919F918F913F912F910F900FBEFE
:100620000F901F90189526E8230F0296A11DB11D6B
:10063000D2CF1F920F920FB60F9211240BB60F92CA
:100640002F933F934F935F936F937F938F939F93DA
:10065000AF93BF93CF93DF93EF93FF9310921A0260
:1006600010921902C0911D02D0911E029E012170AC
:1006700033278091190290911A028A309105C8F4AB
:100680002115310549F000B605FC09C0019790938A
:100690001A028093190203C000B605FCF7CF8091BF
:1006A000190290911A02019690931A0280931902EE
:1006B000E0CF0E9464028091000290910102C80F75
:1006C000D91FD7FD25C0D0931E02C0931D02809173
:1006D0001D0290911E0266E070E00E94D507909383
:1006E0001E0280931D02FF91EF91DF91CF91BF9188
:1006F000AF919F918F917F916F915F914F913F91BA
:100700002F910F900BBE0F900FBE0F901F9018955A
:1007100085E090E090931E0280931D02D8CF1F9237
:100720000F920FB60F9211240BB60F92CF92DF9259
:10073000EF92FF922F933F934F935F936F937F932B
:100740008F939F93AF93BF93EF93FF930E94F50115
:100750006B017C012091060180910E0290910F02A5
:1007600020FF3FC0892B71F481E090E090930F024D
:1007700080930E02C0920A02D0920B02E0920C0209
:10078000F0920D02209106018091080290910902D9
:1007900021FF48C0892B71F481E090E09093090219
:1007A00080930802C0920402D0920502E0920602F1
:1007B000F0920702FF91EF91BF91AF919F918F91BE
:1007C0007F916F915F914F913F912F91FF90EF90AB
:1007D000DF90CF900F900BBE0F900FBE0F901F9029
:1007E0001895019779F610920F0210920E028091DF
:1007F0000A0290910B02A0910C02B0910D02A70188
:100800009601281B390B4A0B5B0BCA01B9010E94E8
:10081000B1066093290270932A0280932B02909371
:100820002C02B0CF019731F6109209021092080203
:10083000C1CF789484B5826084BD84B5816084BD65
:1008400085B5826085BD85B5816085BD80916E006E
:10085000816080936E00109281008091810082609F
:1008600080938100809181008160809381008091DC
:1008700080008160809380008091B10084608093CB
:10088000B1008091B00081608093B00080919100B0
:1008900082608093910080919100816080939100AB
:1008A000809190008160809390008091A10082608F
:1008B0008093A1008091A10081608093A10080912C
:1008C000A00081608093A0008091210182608093CC
:1008D000210180912101816080932101809120017B
:1008E00081608093200180917A00846080937A00F7
:1008F00080917A00826080937A0080917A00816092
:1009000080937A0080917A00806880937A001092B8
:10091000C10087B1876087B988B118B884B1806E8B
:1009200084B985B115B81092800081E08093810070
:1009300080E180BF8091680084608093680080912E
:100940006D00836080936D0006E010E035E0232E9B
:10095000312CC0E10E941A0220E030E64BE854E45A
:100960006091290270912A0280912B0290912C02B1
:100970000E943B0718161CF481E0809328028091A6
:100980002802882309F447C183E290E00E943802DC
:1009900080ED97E090931A0280931902E09019027B
:1009A000F0901A0295EFE91691E0F90680F1C7017F
:1009B000880F991F880F991F05970197F1F70E94DB
:1009C000640280911D0290911E02209100023091DC
:1009D0000102820F931F97FD17C090931E02809310
:1009E0001D0280911D0290911E02B8010E94D50740
:1009F00090931E0280931D029AE0E91AF108F0928A
:100A00001A02E0921902CACF85E090E0E6CF80B7E3
:100A1000886080BFD1E080912802882309F4FBC060
:100A20000E941A0280910202882349F080912702D5
:100A3000882329F080B7886080BF10920202C0909E
:100A40002902D0902A02E0902B02F0902C0220E0A4
:100A500030E04AE754E4C701B6010E94760687FDFC
:100A6000C7C020E030E04AEF54E4C701B6010E945D
:100A70003B0718160CF4C3C0C0922902D0922A0278
:100A8000E0922B02F0922C02C701B6010E947B0675
:100A90004B015C0128EE821A23E0920AA108B108FA
:100AA000A8E1BCEFA50194010E94400628EE33E0C6
:100AB00040E050E00E941306CA01B9016053784F2C
:100AC0008F4F9F4F0E94B3062B013C01409223029F
:100AD000509224026092250270922602ACEDB3E09F
:100AE000A50194010E94320628EE33E040E050E078
:100AF0000E941306DA01C9018396A11DB11D0E944F
:100B000038028091270281114BC0D09302020E94CB
:100B1000F50180901F0290902002A0902102B090D9
:100B20002202681979098A099B090E94B1064B01C2
:100B30005C0120E030E048EC52E4C301B2010E94C5
:100B400040079B01AC01C501B4010E943B0787FD32
:100B500027C00E94640280911D0290911E02209184
:100B6000000230910102820F931F97FD4FC09093B6
:100B70001E0280931D0280911D0290911E02B801F9
:100B80000E94D50790931E0280931D020E94F501DA
:100B900060931F027093200280932102909322029F
:100BA00020E030EC40E854E4C701B6010E9476062C
:100BB00087FF31CF80911B0290911C0281319742B7
:100BC0006CF01092280210921E0210921D02C0BFFB
:100BD0001092800088B118B885B115B880911B02B9
:100BE00090911C02019690931C0280931B0213CFDC
:100BF000C12CD12C9AE7E92E94E4F92E3DCFC12CDB
:100C0000D12C8AEFE82E84E4F82E36CF30921E02E3
:100C100020921D02B0CF80E090E0892B09F49ACE9B
:100C20000E94000096CE052E97FB1EF400940E94B1
:100C30002A0657FD07D00E94450607FC03D04EF454
:100C40000C942A0650954095309521953F4F4F4F73
:100C50005F4F089590958095709561957F4F8F4F68
:100C60009F4F08950E946706A59F900DB49F900D19
:100C7000A49F800D911D11240895B7FF0C94320696
:100C80000E943206821B930B0895A1E21A2EAA1B22
:100C9000BB1BFD010DC0AA1FBB1FEE1FFF1FA2172C
:100CA000B307E407F50720F0A21BB30BE40BF50B29
:100CB000661F771F881F991F1A9469F760957095B2
:100CC000809590959B01AC01BD01CF010895A29F35
:100CD000B001B39FC001A39F700D811D1124911D10
:100CE000B29F700D811D1124911D08950E94EE0682
:100CF00008F481E008950E9482066894B1110C9472
:100D0000350708950E941A0788F09F5798F0B92F69
:100D10009927B751B0F0E1F0660F771F881F991F30
:100D20001AF0BA95C9F714C0B13091F00E94340797
:100D3000B1E008950C943407672F782F8827B85FA7
:100D400039F0B93FCCF3869577956795B395D9F788
:100D50003EF490958095709561957F4F8F4F9F4F92
:100D60000895E89409C097FB3EF49095809570959E
:100D700061957F4F8F4F9F4F9923A9F0F92F96E9E7
:100D8000BB279395F695879577956795B795F1115C
:100D9000F8CFFAF4BB0F11F460FF1BC06F5F7F4FF9
:100DA0008F4F9F4F16C0882311F096E911C077230B
:100DB00021F09EE8872F762F05C0662371F096E814
:100DC000862F70E060E02AF09A95660F771F881FE3
:100DD000DAF7880F9695879597F90895990F000887
:100DE000550FAA0BE0E8FEEF16161706E807F907FD
:100DF000C0F012161306E407F50798F0621B730B98
:100E0000840B950B39F40A2661F0232B242B252B18
:100E100021F408950A2609F4A140A6958FEF811DBB
:100E2000811D089557FD9058440F551F59F05F3F9D
:100E300071F04795880F97FB991F61F09F3F79F0FC
:100E400087950895121613061406551FF2CF46957E
:100E5000F1DF08C0161617061806991FF1CF869500
:100E60007105610508940895E894BB2766277727E4
:100E7000CB0197F908950E94EE0608F48FEF0895CC
:100E80000E9453070C94C4070E94B60738F00E94D2
:100E9000BD0720F0952311F00C94AD070C94B30717
:100EA00011240C9435070E94120770F3959FC1F32B
:100EB000950F50E0551F629FF001729FBB27F00D08
:100EC000B11D639FAA27F00DB11DAA1F649F66275D
:100ED000B00DA11D661F829F2227B00DA11D621FAC
:100EE000739FB00DA11D621F839FA00D611D221F66
:100EF000749F3327A00D611D231F849F600D211D4A
:100F0000822F762F6A2F11249F5750409AF0F1F0CC
:100F100088234AF0EE0FFF1FBB1F661F771F881F35
:100F200091505040A9F79E3F510580F00C94AD07B9
:100F30000C9435075F3FE4F3983ED4F3869577959C
:100F40006795B795F795E7959F5FC1F7FE2B880FDB
:100F5000911D9695879597F9089597F99F6780E871
:100F600070E060E008959FEF80EC089500240A94FB
:100F70001616170618060906089500240A94121674
:100F80001306140605060895092E0394000C11F4A7
:100F9000882352F0BB0F40F4BF2B11F460FF04C054
:100FA0006F5F7F4F8F4F9F4F089597FB072E16F46B
:100FB000009407D077FD09D00E94F10707FC05D007
:100FC0003EF4909581959F4F0895709561957F4F60
:100FD0000895EE0FFF1F881F8BBF0790F691E02D3D
:100FE0001994AA1BBB1B51E107C0AA1FBB1FA61760
:100FF000B70710F0A61BB70B881F991F5A95A9F7C2
:0E10000080959095BC01CD010895F894FFCF26
:04100E0001000100DC
:00000001FF
